{
  "contractName": "Positions",
  "abi": [
    {
      "inputs": [
        {
          "internalType": "uint256[2]",
          "name": "a",
          "type": "uint256[2]"
        },
        {
          "internalType": "uint256[2][2]",
          "name": "b",
          "type": "uint256[2][2]"
        },
        {
          "internalType": "uint256[2]",
          "name": "c",
          "type": "uint256[2]"
        },
        {
          "internalType": "uint256[2]",
          "name": "input",
          "type": "uint256[2]"
        }
      ],
      "name": "moveVerifyProof",
      "outputs": [
        {
          "internalType": "bool",
          "name": "r",
          "type": "bool"
        }
      ],
      "stateMutability": "view",
      "type": "function",
      "constant": true
    },
    {
      "inputs": [
        {
          "internalType": "address",
          "name": "",
          "type": "address"
        }
      ],
      "name": "player_resources",
      "outputs": [
        {
          "internalType": "uint32",
          "name": "",
          "type": "uint32"
        }
      ],
      "stateMutability": "view",
      "type": "function",
      "constant": true
    },
    {
      "inputs": [
        {
          "internalType": "uint256",
          "name": "",
          "type": "uint256"
        }
      ],
      "name": "positions",
      "outputs": [
        {
          "internalType": "uint8",
          "name": "exploited_resources",
          "type": "uint8"
        },
        {
          "internalType": "uint16",
          "name": "players_in_position",
          "type": "uint16"
        }
      ],
      "stateMutability": "view",
      "type": "function",
      "constant": true
    },
    {
      "inputs": [
        {
          "internalType": "uint256[2]",
          "name": "a",
          "type": "uint256[2]"
        },
        {
          "internalType": "uint256[2][2]",
          "name": "b",
          "type": "uint256[2][2]"
        },
        {
          "internalType": "uint256[2]",
          "name": "c",
          "type": "uint256[2]"
        },
        {
          "internalType": "uint256[1]",
          "name": "input",
          "type": "uint256[1]"
        }
      ],
      "name": "spawnVerifyProof",
      "outputs": [
        {
          "internalType": "bool",
          "name": "r",
          "type": "bool"
        }
      ],
      "stateMutability": "view",
      "type": "function",
      "constant": true
    },
    {
      "inputs": [
        {
          "internalType": "uint256[2]",
          "name": "a",
          "type": "uint256[2]"
        },
        {
          "internalType": "uint256[2][2]",
          "name": "b",
          "type": "uint256[2][2]"
        },
        {
          "internalType": "uint256[2]",
          "name": "c",
          "type": "uint256[2]"
        },
        {
          "internalType": "uint256[1]",
          "name": "input",
          "type": "uint256[1]"
        }
      ],
      "name": "insert_initial_position",
      "outputs": [],
      "stateMutability": "nonpayable",
      "type": "function"
    },
    {
      "inputs": [
        {
          "internalType": "uint256[2]",
          "name": "a",
          "type": "uint256[2]"
        },
        {
          "internalType": "uint256[2][2]",
          "name": "b",
          "type": "uint256[2][2]"
        },
        {
          "internalType": "uint256[2]",
          "name": "c",
          "type": "uint256[2]"
        },
        {
          "internalType": "uint256[2]",
          "name": "input",
          "type": "uint256[2]"
        }
      ],
      "name": "move_to_new_position",
      "outputs": [
        {
          "internalType": "uint8",
          "name": "resources",
          "type": "uint8"
        }
      ],
      "stateMutability": "nonpayable",
      "type": "function"
    },
    {
      "inputs": [],
      "name": "get_my_resources",
      "outputs": [
        {
          "internalType": "uint32",
          "name": "",
          "type": "uint32"
        }
      ],
      "stateMutability": "view",
      "type": "function",
      "constant": true
    }
  ],
  "bytecode": "0x608060405234801561001057600080fd5b50612664806100206000396000f3fe608060405234801561001057600080fd5b506004361061007d5760003560e01c80639011f7b81161005b5780639011f7b8146103c057806399fbab88146103ea578063ba9d824314610441578063bbfc7c95146105ba5761007d565b80633d1ca20b1461008257806341a49bb5146101e35780637d21496914610247575b600080fd5b6101e1600480360361012081101561009957600080fd5b8101908080604001906002806020026040519081016040528092919082600260200280828437600081840152601f19601f82011690508083019250505050505091929192908060800190600280602002604051908101604052809291906000905b8282101561014e578382604002016002806020026040519081016040528092919082600260200280828437600081840152601f19601f820116905080830192505050505050815260200190600101906100fa565b50505050919291929080604001906002806020026040519081016040528092919082600260200280828437600081840152601f19601f820116905080830192505050505050919291929080602001906001806020026040519081016040528092919082600160200280828437600081840152601f19601f8201169050808301925050505050509192919290505050610735565b005b610225600480360360208110156101f957600080fd5b81019080803573ffffffffffffffffffffffffffffffffffffffff169060200190929190505050610935565b604051808263ffffffff1663ffffffff16815260200191505060405180910390f35b6103a6600480360361012081101561025e57600080fd5b8101908080604001906002806020026040519081016040528092919082600260200280828437600081840152601f19601f82011690508083019250505050505091929192908060800190600280602002604051908101604052809291906000905b82821015610313578382604002016002806020026040519081016040528092919082600260200280828437600081840152601f19601f820116905080830192505050505050815260200190600101906102bf565b50505050919291929080604001906002806020026040519081016040528092919082600260200280828437600081840152601f19601f820116905080830192505050505050919291929080602001906001806020026040519081016040528092919082600160200280828437600081840152601f19601f8201169050808301925050505050509192919290505050610958565b604051808215151515815260200191505060405180910390f35b6103c8610b6b565b604051808263ffffffff1663ffffffff16815260200191505060405180910390f35b6104166004803603602081101561040057600080fd5b8101908080359060200190929190505050610bc2565b604051808360ff1660ff1681526020018261ffff1661ffff1681526020019250505060405180910390f35b6105a0600480360361014081101561045857600080fd5b8101908080604001906002806020026040519081016040528092919082600260200280828437600081840152601f19601f82011690508083019250505050505091929192908060800190600280602002604051908101604052809291906000905b8282101561050d578382604002016002806020026040519081016040528092919082600260200280828437600081840152601f19601f820116905080830192505050505050815260200190600101906104b9565b50505050919291929080604001906002806020026040519081016040528092919082600260200280828437600081840152601f19601f820116905080830192505050505050919291929080604001906002806020026040519081016040528092919082600260200280828437600081840152601f19601f8201169050808301925050505050509192919290505050610c01565b604051808215151515815260200191505060405180910390f35b61071960048036036101408110156105d157600080fd5b8101908080604001906002806020026040519081016040528092919082600260200280828437600081840152601f19601f82011690508083019250505050505091929192908060800190600280602002604051908101604052809291906000905b82821015610686578382604002016002806020026040519081016040528092919082600260200280828437600081840152601f19601f82011690508083019250505050505081526020019060010190610632565b50505050919291929080604001906002806020026040519081016040528092919082600260200280828437600081840152601f19601f820116905080830192505050505050919291929080604001906002806020026040519081016040528092919082600260200280828437600081840152601f19601f8201169050808301925050505050509192919290505050610e14565b604051808260ff1660ff16815260200191505060405180910390f35b61074184848484610958565b6107b3576040517f08c379a00000000000000000000000000000000000000000000000000000000081526004018080602001828103825260128152602001807f4661696c65642070726f6f6620636865636b000000000000000000000000000081525060200191505060405180910390fd5b6000806000836000600181106107c557fe5b6020020151815260200190815260200160002060000160019054906101000a900461ffff1661ffff1614610861576040517f08c379a000000000000000000000000000000000000000000000000000000000815260040180806020018281038252601c8152602001807f506f736974696f6e20697320616c7265616479206f636375706965640000000081525060200191505060405180910390fd5b600061087d8260006001811061087357fe5b6020020151611053565b60ff16146108d6576040517f08c379a000000000000000000000000000000000000000000000000000000000815260040180806020018281038252602b815260200180612604602b913960400191505060405180910390fd5b600080826000600181106108e657fe5b60200201518152602001908152602001600020600001600181819054906101000a900461ffff168092919060010191906101000a81548161ffff021916908361ffff1602179055505050505050565b60016020528060005260406000206000915054906101000a900463ffffffff1681565b60006109626124c1565b60405180604001604052808760006002811061097a57fe5b602002015181526020018760016002811061099157fe5b6020020151815250816000018190525060405180604001604052806040518060400160405280886000600281106109c457fe5b60200201516000600281106109d557fe5b60200201518152602001886000600281106109ec57fe5b60200201516001600281106109fd57fe5b60200201518152508152602001604051806040016040528088600160028110610a2257fe5b6020020151600060028110610a3357fe5b6020020151815260200188600160028110610a4a57fe5b6020020151600160028110610a5b57fe5b60200201518152508152508160200181905250604051806040016040528085600060028110610a8657fe5b6020020151815260200185600160028110610a9d57fe5b602002015181525081604001819052506060600167ffffffffffffffff81118015610ac757600080fd5b50604051908082528060200260200182016040528015610af65781602001602082028036833780820191505090505b50905060008090505b6001811015610b3e57848160018110610b1457fe5b6020020151828281518110610b2557fe5b6020026020010181815250508080600101915050610aff565b506000610b4b8284611083565b1415610b5c57600192505050610b63565b6000925050505b949350505050565b6000600160003373ffffffffffffffffffffffffffffffffffffffff1673ffffffffffffffffffffffffffffffffffffffff16815260200190815260200160002060009054906101000a900463ffffffff16905090565b60006020528060005260406000206000915090508060000160009054906101000a900460ff16908060000160019054906101000a900461ffff16905082565b6000610c0b6124c1565b604051806040016040528087600060028110610c2357fe5b6020020151815260200187600160028110610c3a57fe5b602002015181525081600001819052506040518060400160405280604051806040016040528088600060028110610c6d57fe5b6020020151600060028110610c7e57fe5b6020020151815260200188600060028110610c9557fe5b6020020151600160028110610ca657fe5b60200201518152508152602001604051806040016040528088600160028110610ccb57fe5b6020020151600060028110610cdc57fe5b6020020151815260200188600160028110610cf357fe5b6020020151600160028110610d0457fe5b60200201518152508152508160200181905250604051806040016040528085600060028110610d2f57fe5b6020020151815260200185600160028110610d4657fe5b602002015181525081604001819052506060600267ffffffffffffffff81118015610d7057600080fd5b50604051908082528060200260200182016040528015610d9f5781602001602082028036833780820191505090505b50905060008090505b6002811015610de757848160028110610dbd57fe5b6020020151828281518110610dce57fe5b6020026020010181815250508080600101915050610da8565b506000610df482846112b7565b1415610e0557600192505050610e0c565b6000925050505b949350505050565b6000610e2285858585610c01565b610e94576040517f08c379a00000000000000000000000000000000000000000000000000000000081526004018080602001828103825260128152602001807f4661696c65642070726f6f6620636865636b000000000000000000000000000081525060200191505060405180910390fd5b6000610eb083600060028110610ea657fe5b6020020151611053565b905060008160ff161115610f945760008084600060028110610ece57fe5b6020020151815260200190815260200160002060000160009054906101000a900460ff16810360ff16600160003373ffffffffffffffffffffffffffffffffffffffff1673ffffffffffffffffffffffffffffffffffffffff16815260200190815260200160002060006101000a81548163ffffffff021916908363ffffffff1602179055508060008085600060028110610f6557fe5b6020020151815260200190815260200160002060000160006101000a81548160ff021916908360ff1602179055505b60008084600060028110610fa457fe5b60200201518152602001908152602001600020600001600181819054906101000a900461ffff16809291906001900391906101000a81548161ffff021916908361ffff1602179055505060008084600160028110610ffe57fe5b60200201518152602001908152602001600020600001600181819054906101000a900461ffff168092919060010191906101000a81548161ffff021916908361ffff1602179055505080915050949350505050565b600080600c838161106057fe5b06905060048160ff161015611078578091505061107e565b60009150505b919050565b6000807f30644e72e131a029b85045b68181585d2833e84879b9709143e1f593f000000190506110b16124f4565b6110b96114eb565b9050806080015151600186510114611139576040517f08c379a00000000000000000000000000000000000000000000000000000000081526004018080602001828103825260128152602001807f76657269666965722d6261642d696e707574000000000000000000000000000081525060200191505060405180910390fd5b61114161253b565b6040518060400160405280600081526020016000815250905060008090505b8651811015611240578387828151811061117657fe5b6020026020010151106111f1576040517f08c379a000000000000000000000000000000000000000000000000000000000815260040180806020018281038252601f8152602001807f76657269666965722d6774652d736e61726b2d7363616c61722d6669656c640081525060200191505060405180910390fd5b6112318261122c8560800151600185018151811061120b57fe5b60200260200101518a858151811061121f57fe5b60200260200101516118df565b6119da565b91508080600101915050611160565b5061126381836080015160008151811061125657fe5b60200260200101516119da565b90506112996112758660000151611af4565b8660200151846000015185602001518587604001518b604001518960600151611b8e565b6112a957600193505050506112b1565b600093505050505b92915050565b6000807f30644e72e131a029b85045b68181585d2833e84879b9709143e1f593f000000190506112e56124f4565b6112ed611d20565b905080608001515160018651011461136d576040517f08c379a00000000000000000000000000000000000000000000000000000000081526004018080602001828103825260128152602001807f76657269666965722d6261642d696e707574000000000000000000000000000081525060200191505060405180910390fd5b61137561253b565b6040518060400160405280600081526020016000815250905060008090505b865181101561147457838782815181106113aa57fe5b602002602001015110611425576040517f08c379a000000000000000000000000000000000000000000000000000000000815260040180806020018281038252601f8152602001807f76657269666965722d6774652d736e61726b2d7363616c61722d6669656c640081525060200191505060405180910390fd5b611465826114608560800151600185018151811061143f57fe5b60200260200101518a858151811061145357fe5b60200260200101516118df565b6119da565b91508080600101915050611394565b5061149781836080015160008151811061148a57fe5b60200260200101516119da565b90506114cd6114a98660000151611af4565b8660200151846000015185602001518587604001518b604001518960600151611b8e565b6114dd57600193505050506114e5565b600093505050505b92915050565b6114f36124f4565b60405180604001604052807f11027381a2a8ab506d186fd0df70e54aa52267c19a51a594b5a19989b7a2589381526020017f1fe9f29a4f805f78c0380b00f361ae54b445489cfc2ad2ea95078ec657c7dd638152508160000181905250604051806040016040528060405180604001604052807f1112b9d170b9b05f96fffeac2134d6e9b5519e2e87e6bfafb64d4fc1b603e33881526020017f055e90648675a645e12096195ccc6f8edce714270dc99642e8a3089fde128fcb815250815260200160405180604001604052807f238fe474499efe9986c77ae5652cc86523d7fd4dacc1581e7bdc3e1f898763b981526020017f2a984a5cbaad8c43c5de3b6f08c8130d012ef135410f179feec877d77bb56b5f8152508152508160200181905250604051806040016040528060405180604001604052807f198e9393920d483a7260bfb731fb5d25f1aa493335a9e71297e485b7aef312c281526020017f1800deef121f1e76426a00665e5c4479674322d4f75edadd46debd5cd992f6ed815250815260200160405180604001604052807f090689d0585ff075ec9e99ad690c3395bc4b313370b38ef355acdadcd122975b81526020017f12c85ea5db8c6deb4aab71808dcb408fe3d1e7690c43d37b4ce6cc0166fa7daa8152508152508160400181905250604051806040016040528060405180604001604052807f085c2599b430cbb9cb7e1359d2818d8df0aa29774ad668a10b23a577083dae7f81526020017f19235a69c79f8a34d9e415fe8633fd6f43aca739e7f3d76e2ac3844041f70e9d815250815260200160405180604001604052807f0d497370b73e4ce1c6d5e8f525d43d25c8b32d29dfd044033415797d11b63ff181526020017f21343ae89bccd8576addedb7722eb60779a3c29166ac01d1141ed703be0ef2db8152508152508160600181905250600267ffffffffffffffff811180156117b757600080fd5b506040519080825280602002602001820160405280156117f157816020015b6117de61253b565b8152602001906001900390816117d65790505b50816080018190525060405180604001604052807f2f42c4df6cfca822b9f8b6cfecff6ab8698e45f82580a6d39f2cba31fa21cc7a81526020017f09924cc83ce4a94a8c32a7b1e36e224c06bfcfe1da5fc138c8a08f6c60ae2571815250816080015160008151811061186057fe5b602002602001018190525060405180604001604052807f0a88cd88176f018f0309c2b484b0a72a7c2573b94bf22d099285f9ab63a8b99281526020017f040d510605e8e1948df0561c4a1a7e06de84d2522c26742ef7f9ecf104696ec881525081608001516001815181106118d157fe5b602002602001018190525090565b6118e761253b565b6118ef612555565b83600001518160006003811061190157fe5b60200201818152505083602001518160016003811061191c57fe5b602002018181525050828160026003811061193357fe5b602002018181525050600060608360808460076107d05a03fa9050806000811461195c5761195e565bfe5b50806119d2576040517f08c379a00000000000000000000000000000000000000000000000000000000081526004018080602001828103825260128152602001807f70616972696e672d6d756c2d6661696c6564000000000000000000000000000081525060200191505060405180910390fd5b505092915050565b6119e261253b565b6119ea612577565b8360000151816000600481106119fc57fe5b602002018181525050836020015181600160048110611a1757fe5b602002018181525050826000015181600260048110611a3257fe5b602002018181525050826020015181600360048110611a4d57fe5b602002018181525050600060608360c08460066107d05a03fa90508060008114611a7657611a78565bfe5b5080611aec576040517f08c379a00000000000000000000000000000000000000000000000000000000081526004018080602001828103825260128152602001807f70616972696e672d6164642d6661696c6564000000000000000000000000000081525060200191505060405180910390fd5b505092915050565b611afc61253b565b60007f30644e72e131a029b85045b68181585d97816a916871ca8d3c208c16d87cfd47905060008360000151148015611b39575060008360200151145b15611b5d576040518060400160405280600081526020016000815250915050611b89565b60405180604001604052808460000151815260200182856020015181611b7f57fe5b0683038152509150505b919050565b60006060600467ffffffffffffffff81118015611baa57600080fd5b50604051908082528060200260200182016040528015611be457816020015b611bd161253b565b815260200190600190039081611bc95790505b5090506060600467ffffffffffffffff81118015611c0157600080fd5b50604051908082528060200260200182016040528015611c3b57816020015b611c28612599565b815260200190600190039081611c205790505b5090508a82600081518110611c4c57fe5b60200260200101819052508882600181518110611c6557fe5b60200260200101819052508682600281518110611c7e57fe5b60200260200101819052508482600381518110611c9757fe5b60200260200101819052508981600081518110611cb057fe5b60200260200101819052508781600181518110611cc957fe5b60200260200101819052508581600281518110611ce257fe5b60200260200101819052508381600381518110611cfb57fe5b6020026020010181905250611d108282612185565b9250505098975050505050505050565b611d286124f4565b60405180604001604052807f2c8240c8bc45ddc7d7954d8db2df057444c748c1bd5aa9d399276b85f7c2a90381526020017f176245548a9ea9ec9057560c1fd2b00675b50fcdae3d066ac1623a2f78120abf8152508160000181905250604051806040016040528060405180604001604052807f27edce85187f7846f80aa68b7d457446e91c0aeea02a7efa7ab0707350dc6ead81526020017f0236e365cbe3809b7a6ebe6223f6785db4b0c5277c000a073603026d84c25d0d815250815260200160405180604001604052807f1e1faaf8cb05700789dd8da3582df0663bb9f17edc4c37e423f33ab6147dbc6c81526020017f158bdba58679ee107c80c1d251c9a19b1f5fb1a354568d5e98576118cc94122d8152508152508160200181905250604051806040016040528060405180604001604052807f198e9393920d483a7260bfb731fb5d25f1aa493335a9e71297e485b7aef312c281526020017f1800deef121f1e76426a00665e5c4479674322d4f75edadd46debd5cd992f6ed815250815260200160405180604001604052807f090689d0585ff075ec9e99ad690c3395bc4b313370b38ef355acdadcd122975b81526020017f12c85ea5db8c6deb4aab71808dcb408fe3d1e7690c43d37b4ce6cc0166fa7daa8152508152508160400181905250604051806040016040528060405180604001604052807f06c63221206982d3015964eebdf47e14d5dfd19fa26e95d82268b41ffe069abf81526020017f24ced917bbbfa27aaa676e065deb33fa443295f1e229a5bc077e34b8dcdc3ece815250815260200160405180604001604052807f23afc35981543559af0f0cee8693079018add224c8bce52ab985cef34df8094e81526020017f2ea58d03f659373184323abfec0db0a4ae35922ade9b74e36f5754e85be546778152508152508160600181905250600367ffffffffffffffff81118015611fec57600080fd5b5060405190808252806020026020018201604052801561202657816020015b61201361253b565b81526020019060019003908161200b5790505b50816080018190525060405180604001604052807f0f9582ffe87a1578e47c48a5adbd9441dad898b66633b6940be74f8c59a788c481526020017f267b7dd893681945f6ee608cc3e38c1200bdb6275bd1ee5ad1b778d708f9811b815250816080015160008151811061209557fe5b602002602001018190525060405180604001604052807f0b9f105769c8bffcd7c14bac3b6cab0a6bc7fb858106f97ac3998abc2aec7eb481526020017f2abaf68cb6da2bc084b37b166bcb4c770447f9a06b78032244b979266f1d8d70815250816080015160018151811061210657fe5b602002602001018190525060405180604001604052807f24ddbb3518066c89bd77686ab4f809c576f66964161e4d331ab37d4e4ba0aa2d81526020017f0e7725f563d2501c3d4d1ef70c99321db0cede9ff2ee1e08ec30100f0430fde3815250816080015160028151811061217757fe5b602002602001018190525090565b600081518351146121fe576040517f08c379a00000000000000000000000000000000000000000000000000000000081526004018080602001828103825260168152602001807f70616972696e672d6c656e677468732d6661696c65640000000000000000000081525060200191505060405180910390fd5b600083519050600060068202905060608167ffffffffffffffff8111801561222557600080fd5b506040519080825280602002602001820160405280156122545781602001602082028036833780820191505090505b50905060008090505b838110156123fa5786818151811061227157fe5b60200260200101516000015182600060068402018151811061228f57fe5b6020026020010181815250508681815181106122a757fe5b6020026020010151602001518260016006840201815181106122c557fe5b6020026020010181815250508581815181106122dd57fe5b6020026020010151600001516000600281106122f557fe5b602002015182600260068402018151811061230c57fe5b60200260200101818152505085818151811061232457fe5b60200260200101516000015160016002811061233c57fe5b602002015182600360068402018151811061235357fe5b60200260200101818152505085818151811061236b57fe5b60200260200101516020015160006002811061238357fe5b602002015182600460068402018151811061239a57fe5b6020026020010181815250508581815181106123b257fe5b6020026020010151602001516001600281106123ca57fe5b60200201518260056006840201815181106123e157fe5b602002602001018181525050808060010191505061225d565b506124036125bf565b6000602082602086026020860160086107d05a03fa905080600081146124285761242a565bfe5b508061249e576040517f08c379a00000000000000000000000000000000000000000000000000000000081526004018080602001828103825260158152602001807f70616972696e672d6f70636f64652d6661696c6564000000000000000000000081525060200191505060405180910390fd5b6000826000600181106124ad57fe5b602002015114159550505050505092915050565b60405180606001604052806124d461253b565b81526020016124e1612599565b81526020016124ee61253b565b81525090565b6040518060a0016040528061250761253b565b8152602001612514612599565b8152602001612521612599565b815260200161252e612599565b8152602001606081525090565b604051806040016040528060008152602001600081525090565b6040518060600160405280600390602082028036833780820191505090505090565b6040518060800160405280600490602082028036833780820191505090505090565b60405180604001604052806125ac6125e1565b81526020016125b96125e1565b81525090565b6040518060200160405280600190602082028036833780820191505090505090565b604051806040016040528060029060208202803683378082019150509050509056fe596f752063616e277420737061776e20696e206120706f736974696f6e2077697468206120706c616e6574a2646970667358221220a782fca3c13ab2825ed9f1fa856f468836844f54c50ee26871356e1a7c1cc35164736f6c634300060b0033",
  "immutableReferences": {},
  "source": "// SPDX-License-Identifier: MIT\n\n//Not using 0.8 since the verifiers are generated with 0.6\n//TO DO: Check if they can be upgraded to 0.8\npragma solidity ^0.6.11;\n\nimport './Verifiers.sol';\n\ncontract Positions is SpawnVerifier, MoveVerifier {\n\n    struct Position{\n        //How many resources have been exploited in that position \n        //(If it's not a planet, it has no resources, so it will always be 0)\n        uint8 exploited_resources;\n        //Players in position is used to know if the space is occupied\n        uint16 players_in_position;\n\n        //There should be a timestamp for progressive exploitation of the resources\n        //Right now we will make instant explotation\n    }\n\n    mapping (uint256 => Position) public positions;\n    \n    //TO DO: This is fine for tracking your own resources\n    //But alone doesn't work to show all scores\n    //May need to keep a list of players in a later version\n    mapping(address => uint32) public player_resources;\n\n    function insert_initial_position(            \n            uint[2] memory a,\n            uint[2][2] memory b,\n            uint[2] memory c,\n            uint[1] memory input)\n    public{\n        require(\n            spawnVerifyProof(a,b,c,input),\n            \"Failed proof check\"\n        );\n        /*\n            There should be another require in the future, \n            as to take in account the 5 mins windows.\n\n            It may be needed to store a timestamp along with the position\n        */\n\n        require(positions[input[0]].players_in_position == 0, \n            \"Position is already occupied\");\n\n        require(planet_i(input[0]) == 0, \"You can't spawn in a position with a planet\");\n\n        //Safe math should be used on the release (or solidity 0.8)\n        positions[input[0]].players_in_position++;\n    }\n    //let specificInstance = await Positions.at(\"0x3b58A6bFD71e19F6b23978145048962C51a3E3FB\");\n\n    // Moves to a new point and returns the amount of resources it has\n    // if it's a planet with resources\n    // (Or 0 if it's not a planet, which means it has no resources)\n\n    function move_to_new_position(            \n        uint[2] memory a,\n        uint[2][2] memory b,\n        uint[2] memory c,\n        uint[2] memory input) \n    public returns(uint8 resources){\n        require(\n            moveVerifyProof(a,b,c,input),\n            \"Failed proof check\"\n        );\n\n        uint8 planet_i = planet_i(input[0]);\n        //Resources are collected when leaving the position\n        //Right now it collects everything at once\n        if(planet_i > 0){\n            player_resources[msg.sender] = planet_i - positions[input[0]].exploited_resources;\n            positions[input[0]].exploited_resources = planet_i;\n        }\n\n        //Safe math should be used on the release (or solidity 0.8)\n        positions[input[0]].players_in_position--;\n        positions[input[1]].players_in_position++;\n\n        return(planet_i);\n    }\n\n    //Returns the max amount of resources on the position\n    function planet_i(uint position) internal returns (uint8){\n        //This gives 3 / 12 = 1 / 4 chance of a planet\n        // 29 30 has a planet, for testing purposes\n        uint8 remainder = uint8(position % 12);\n        if (remainder < 4){\n            return remainder;\n        }else{\n            return 0;\n        }\n    }\n\n    function get_my_resources() public view returns (uint32){\n        return player_resources[msg.sender];\n    }\n}",
  "sourcePath": "/Users/maurofab/workspace/dark-forest/contracts/Positions.sol",
  "compiler": {
    "name": "solc",
    "version": "0.6.11+commit.5ef660b1.Emscripten.clang"
  },
  "schemaVersion": "3.4.4",
  "updatedAt": "2022-01-14T21:58:46.070Z",
  "networkType": "ethereum",
  "devdoc": {
    "kind": "dev",
    "methods": {
      "moveVerifyProof(uint256[2],uint256[2][2],uint256[2],uint256[2])": {
        "returns": {
          "r": " bool true if proof is valid"
        }
      },
      "spawnVerifyProof(uint256[2],uint256[2][2],uint256[2],uint256[1])": {
        "returns": {
          "r": " bool true if proof is valid"
        }
      }
    },
    "version": 1
  },
  "userdoc": {
    "kind": "user",
    "methods": {},
    "version": 1
  }
}