{
  "contractName": "Positions",
  "abi": [
    {
      "inputs": [
        {
          "internalType": "uint256[2]",
          "name": "a",
          "type": "uint256[2]"
        },
        {
          "internalType": "uint256[2][2]",
          "name": "b",
          "type": "uint256[2][2]"
        },
        {
          "internalType": "uint256[2]",
          "name": "c",
          "type": "uint256[2]"
        },
        {
          "internalType": "uint256[2]",
          "name": "input",
          "type": "uint256[2]"
        }
      ],
      "name": "moveVerifyProof",
      "outputs": [
        {
          "internalType": "bool",
          "name": "r",
          "type": "bool"
        }
      ],
      "stateMutability": "view",
      "type": "function",
      "constant": true
    },
    {
      "inputs": [
        {
          "internalType": "uint256",
          "name": "",
          "type": "uint256"
        }
      ],
      "name": "positions_used",
      "outputs": [
        {
          "internalType": "bool",
          "name": "",
          "type": "bool"
        }
      ],
      "stateMutability": "view",
      "type": "function",
      "constant": true
    },
    {
      "inputs": [
        {
          "internalType": "uint256[2]",
          "name": "a",
          "type": "uint256[2]"
        },
        {
          "internalType": "uint256[2][2]",
          "name": "b",
          "type": "uint256[2][2]"
        },
        {
          "internalType": "uint256[2]",
          "name": "c",
          "type": "uint256[2]"
        },
        {
          "internalType": "uint256[1]",
          "name": "input",
          "type": "uint256[1]"
        }
      ],
      "name": "spawnVerifyProof",
      "outputs": [
        {
          "internalType": "bool",
          "name": "r",
          "type": "bool"
        }
      ],
      "stateMutability": "view",
      "type": "function",
      "constant": true
    },
    {
      "inputs": [
        {
          "internalType": "uint256[2]",
          "name": "a",
          "type": "uint256[2]"
        },
        {
          "internalType": "uint256[2][2]",
          "name": "b",
          "type": "uint256[2][2]"
        },
        {
          "internalType": "uint256[2]",
          "name": "c",
          "type": "uint256[2]"
        },
        {
          "internalType": "uint256[1]",
          "name": "input",
          "type": "uint256[1]"
        }
      ],
      "name": "insert_initial_position",
      "outputs": [],
      "stateMutability": "nonpayable",
      "type": "function"
    },
    {
      "inputs": [
        {
          "internalType": "uint256[2]",
          "name": "a",
          "type": "uint256[2]"
        },
        {
          "internalType": "uint256[2][2]",
          "name": "b",
          "type": "uint256[2][2]"
        },
        {
          "internalType": "uint256[2]",
          "name": "c",
          "type": "uint256[2]"
        },
        {
          "internalType": "uint256[2]",
          "name": "input",
          "type": "uint256[2]"
        }
      ],
      "name": "move_to_new_position",
      "outputs": [],
      "stateMutability": "nonpayable",
      "type": "function"
    }
  ],
  "bytecode": "0x608060405234801561001057600080fd5b5061231a806100206000396000f3fe608060405234801561001057600080fd5b50600436106100575760003560e01c80633d1ca20b1461005c5780637d214969146101bd578063848a951514610336578063ba9d82431461037c578063bbfc7c95146104f5575b600080fd5b6101bb600480360361012081101561007357600080fd5b8101908080604001906002806020026040519081016040528092919082600260200280828437600081840152601f19601f82011690508083019250505050505091929192908060800190600280602002604051908101604052809291906000905b82821015610128578382604002016002806020026040519081016040528092919082600260200280828437600081840152601f19601f820116905080830192505050505050815260200190600101906100d4565b50505050919291929080604001906002806020026040519081016040528092919082600260200280828437600081840152601f19601f820116905080830192505050505050919291929080602001906001806020026040519081016040528092919082600160200280828437600081840152601f19601f8201169050808301925050505050509192919290505050610656565b005b61031c60048036036101208110156101d457600080fd5b8101908080604001906002806020026040519081016040528092919082600260200280828437600081840152601f19601f82011690508083019250505050505091929192908060800190600280602002604051908101604052809291906000905b82821015610289578382604002016002806020026040519081016040528092919082600260200280828437600081840152601f19601f82011690508083019250505050505081526020019060010190610235565b50505050919291929080604001906002806020026040519081016040528092919082600260200280828437600081840152601f19601f820116905080830192505050505050919291929080602001906001806020026040519081016040528092919082600160200280828437600081840152601f19601f82011690508083019250505050505091929192905050506107ba565b604051808215151515815260200191505060405180910390f35b6103626004803603602081101561034c57600080fd5b81019080803590602001909291905050506109cd565b604051808215151515815260200191505060405180910390f35b6104db600480360361014081101561039357600080fd5b8101908080604001906002806020026040519081016040528092919082600260200280828437600081840152601f19601f82011690508083019250505050505091929192908060800190600280602002604051908101604052809291906000905b82821015610448578382604002016002806020026040519081016040528092919082600260200280828437600081840152601f19601f820116905080830192505050505050815260200190600101906103f4565b50505050919291929080604001906002806020026040519081016040528092919082600260200280828437600081840152601f19601f820116905080830192505050505050919291929080604001906002806020026040519081016040528092919082600260200280828437600081840152601f19601f82011690508083019250505050505091929192905050506109ed565b604051808215151515815260200191505060405180910390f35b610654600480360361014081101561050c57600080fd5b8101908080604001906002806020026040519081016040528092919082600260200280828437600081840152601f19601f82011690508083019250505050505091929192908060800190600280602002604051908101604052809291906000905b828210156105c1578382604002016002806020026040519081016040528092919082600260200280828437600081840152601f19601f8201169050808301925050505050508152602001906001019061056d565b50505050919291929080604001906002806020026040519081016040528092919082600260200280828437600081840152601f19601f820116905080830192505050505050919291929080604001906002806020026040519081016040528092919082600260200280828437600081840152601f19601f8201169050808301925050505050509192919290505050610c00565b005b610662848484846107ba565b6106d4576040517f08c379a00000000000000000000000000000000000000000000000000000000081526004018080602001828103825260128152602001807f4661696c65642070726f6f6620636865636b000000000000000000000000000081525060200191505060405180910390fd5b600080826000600181106106e457fe5b6020020151815260200190815260200160002060009054906101000a900460ff1615610778576040517f08c379a000000000000000000000000000000000000000000000000000000000815260040180806020018281038252601c8152602001807f506f736974696f6e20697320616c7265616479206f636375706965640000000081525060200191505060405180910390fd5b60016000808360006001811061078a57fe5b6020020151815260200190815260200160002060006101000a81548160ff02191690831515021790555050505050565b60006107c46121a2565b6040518060400160405280876000600281106107dc57fe5b60200201518152602001876001600281106107f357fe5b60200201518152508160000181905250604051806040016040528060405180604001604052808860006002811061082657fe5b602002015160006002811061083757fe5b602002015181526020018860006002811061084e57fe5b602002015160016002811061085f57fe5b6020020151815250815260200160405180604001604052808860016002811061088457fe5b602002015160006002811061089557fe5b60200201518152602001886001600281106108ac57fe5b60200201516001600281106108bd57fe5b602002015181525081525081602001819052506040518060400160405280856000600281106108e857fe5b60200201518152602001856001600281106108ff57fe5b602002015181525081604001819052506060600167ffffffffffffffff8111801561092957600080fd5b506040519080825280602002602001820160405280156109585781602001602082028036833780820191505090505b50905060008090505b60018110156109a05784816001811061097657fe5b602002015182828151811061098757fe5b6020026020010181815250508080600101915050610961565b5060006109ad8284610d64565b14156109be576001925050506109c5565b6000925050505b949350505050565b60006020528060005260406000206000915054906101000a900460ff1681565b60006109f76121a2565b604051806040016040528087600060028110610a0f57fe5b6020020151815260200187600160028110610a2657fe5b602002015181525081600001819052506040518060400160405280604051806040016040528088600060028110610a5957fe5b6020020151600060028110610a6a57fe5b6020020151815260200188600060028110610a8157fe5b6020020151600160028110610a9257fe5b60200201518152508152602001604051806040016040528088600160028110610ab757fe5b6020020151600060028110610ac857fe5b6020020151815260200188600160028110610adf57fe5b6020020151600160028110610af057fe5b60200201518152508152508160200181905250604051806040016040528085600060028110610b1b57fe5b6020020151815260200185600160028110610b3257fe5b602002015181525081604001819052506060600267ffffffffffffffff81118015610b5c57600080fd5b50604051908082528060200260200182016040528015610b8b5781602001602082028036833780820191505090505b50905060008090505b6002811015610bd357848160028110610ba957fe5b6020020151828281518110610bba57fe5b6020026020010181815250508080600101915050610b94565b506000610be08284610f98565b1415610bf157600192505050610bf8565b6000925050505b949350505050565b610c0c848484846109ed565b610c7e576040517f08c379a00000000000000000000000000000000000000000000000000000000081526004018080602001828103825260128152602001807f4661696c65642070726f6f6620636865636b000000000000000000000000000081525060200191505060405180910390fd5b60008082600060028110610c8e57fe5b6020020151815260200190815260200160002060009054906101000a900460ff1615610d22576040517f08c379a000000000000000000000000000000000000000000000000000000000815260040180806020018281038252601c8152602001807f506f736974696f6e20697320616c7265616479206f636375706965640000000081525060200191505060405180910390fd5b600160008083600060028110610d3457fe5b6020020151815260200190815260200160002060006101000a81548160ff02191690831515021790555050505050565b6000807f30644e72e131a029b85045b68181585d2833e84879b9709143e1f593f00000019050610d926121d5565b610d9a6111cc565b9050806080015151600186510114610e1a576040517f08c379a00000000000000000000000000000000000000000000000000000000081526004018080602001828103825260128152602001807f76657269666965722d6261642d696e707574000000000000000000000000000081525060200191505060405180910390fd5b610e2261221c565b6040518060400160405280600081526020016000815250905060008090505b8651811015610f215783878281518110610e5757fe5b602002602001015110610ed2576040517f08c379a000000000000000000000000000000000000000000000000000000000815260040180806020018281038252601f8152602001807f76657269666965722d6774652d736e61726b2d7363616c61722d6669656c640081525060200191505060405180910390fd5b610f1282610f0d85608001516001850181518110610eec57fe5b60200260200101518a8581518110610f0057fe5b60200260200101516115c0565b6116bb565b91508080600101915050610e41565b50610f44818360800151600081518110610f3757fe5b60200260200101516116bb565b9050610f7a610f5686600001516117d5565b8660200151846000015185602001518587604001518b60400151896060015161186f565b610f8a5760019350505050610f92565b600093505050505b92915050565b6000807f30644e72e131a029b85045b68181585d2833e84879b9709143e1f593f00000019050610fc66121d5565b610fce611a01565b905080608001515160018651011461104e576040517f08c379a00000000000000000000000000000000000000000000000000000000081526004018080602001828103825260128152602001807f76657269666965722d6261642d696e707574000000000000000000000000000081525060200191505060405180910390fd5b61105661221c565b6040518060400160405280600081526020016000815250905060008090505b8651811015611155578387828151811061108b57fe5b602002602001015110611106576040517f08c379a000000000000000000000000000000000000000000000000000000000815260040180806020018281038252601f8152602001807f76657269666965722d6774652d736e61726b2d7363616c61722d6669656c640081525060200191505060405180910390fd5b611146826111418560800151600185018151811061112057fe5b60200260200101518a858151811061113457fe5b60200260200101516115c0565b6116bb565b91508080600101915050611075565b5061117881836080015160008151811061116b57fe5b60200260200101516116bb565b90506111ae61118a86600001516117d5565b8660200151846000015185602001518587604001518b60400151896060015161186f565b6111be57600193505050506111c6565b600093505050505b92915050565b6111d46121d5565b60405180604001604052807f11027381a2a8ab506d186fd0df70e54aa52267c19a51a594b5a19989b7a2589381526020017f1fe9f29a4f805f78c0380b00f361ae54b445489cfc2ad2ea95078ec657c7dd638152508160000181905250604051806040016040528060405180604001604052807f1112b9d170b9b05f96fffeac2134d6e9b5519e2e87e6bfafb64d4fc1b603e33881526020017f055e90648675a645e12096195ccc6f8edce714270dc99642e8a3089fde128fcb815250815260200160405180604001604052807f238fe474499efe9986c77ae5652cc86523d7fd4dacc1581e7bdc3e1f898763b981526020017f2a984a5cbaad8c43c5de3b6f08c8130d012ef135410f179feec877d77bb56b5f8152508152508160200181905250604051806040016040528060405180604001604052807f198e9393920d483a7260bfb731fb5d25f1aa493335a9e71297e485b7aef312c281526020017f1800deef121f1e76426a00665e5c4479674322d4f75edadd46debd5cd992f6ed815250815260200160405180604001604052807f090689d0585ff075ec9e99ad690c3395bc4b313370b38ef355acdadcd122975b81526020017f12c85ea5db8c6deb4aab71808dcb408fe3d1e7690c43d37b4ce6cc0166fa7daa8152508152508160400181905250604051806040016040528060405180604001604052807f085c2599b430cbb9cb7e1359d2818d8df0aa29774ad668a10b23a577083dae7f81526020017f19235a69c79f8a34d9e415fe8633fd6f43aca739e7f3d76e2ac3844041f70e9d815250815260200160405180604001604052807f0d497370b73e4ce1c6d5e8f525d43d25c8b32d29dfd044033415797d11b63ff181526020017f21343ae89bccd8576addedb7722eb60779a3c29166ac01d1141ed703be0ef2db8152508152508160600181905250600267ffffffffffffffff8111801561149857600080fd5b506040519080825280602002602001820160405280156114d257816020015b6114bf61221c565b8152602001906001900390816114b75790505b50816080018190525060405180604001604052807f2f42c4df6cfca822b9f8b6cfecff6ab8698e45f82580a6d39f2cba31fa21cc7a81526020017f09924cc83ce4a94a8c32a7b1e36e224c06bfcfe1da5fc138c8a08f6c60ae2571815250816080015160008151811061154157fe5b602002602001018190525060405180604001604052807f0a88cd88176f018f0309c2b484b0a72a7c2573b94bf22d099285f9ab63a8b99281526020017f040d510605e8e1948df0561c4a1a7e06de84d2522c26742ef7f9ecf104696ec881525081608001516001815181106115b257fe5b602002602001018190525090565b6115c861221c565b6115d0612236565b8360000151816000600381106115e257fe5b6020020181815250508360200151816001600381106115fd57fe5b602002018181525050828160026003811061161457fe5b602002018181525050600060608360808460076107d05a03fa9050806000811461163d5761163f565bfe5b50806116b3576040517f08c379a00000000000000000000000000000000000000000000000000000000081526004018080602001828103825260128152602001807f70616972696e672d6d756c2d6661696c6564000000000000000000000000000081525060200191505060405180910390fd5b505092915050565b6116c361221c565b6116cb612258565b8360000151816000600481106116dd57fe5b6020020181815250508360200151816001600481106116f857fe5b60200201818152505082600001518160026004811061171357fe5b60200201818152505082602001518160036004811061172e57fe5b602002018181525050600060608360c08460066107d05a03fa9050806000811461175757611759565bfe5b50806117cd576040517f08c379a00000000000000000000000000000000000000000000000000000000081526004018080602001828103825260128152602001807f70616972696e672d6164642d6661696c6564000000000000000000000000000081525060200191505060405180910390fd5b505092915050565b6117dd61221c565b60007f30644e72e131a029b85045b68181585d97816a916871ca8d3c208c16d87cfd4790506000836000015114801561181a575060008360200151145b1561183e57604051806040016040528060008152602001600081525091505061186a565b6040518060400160405280846000015181526020018285602001518161186057fe5b0683038152509150505b919050565b60006060600467ffffffffffffffff8111801561188b57600080fd5b506040519080825280602002602001820160405280156118c557816020015b6118b261221c565b8152602001906001900390816118aa5790505b5090506060600467ffffffffffffffff811180156118e257600080fd5b5060405190808252806020026020018201604052801561191c57816020015b61190961227a565b8152602001906001900390816119015790505b5090508a8260008151811061192d57fe5b6020026020010181905250888260018151811061194657fe5b6020026020010181905250868260028151811061195f57fe5b6020026020010181905250848260038151811061197857fe5b6020026020010181905250898160008151811061199157fe5b602002602001018190525087816001815181106119aa57fe5b602002602001018190525085816002815181106119c357fe5b602002602001018190525083816003815181106119dc57fe5b60200260200101819052506119f18282611e66565b9250505098975050505050505050565b611a096121d5565b60405180604001604052807f2c8240c8bc45ddc7d7954d8db2df057444c748c1bd5aa9d399276b85f7c2a90381526020017f176245548a9ea9ec9057560c1fd2b00675b50fcdae3d066ac1623a2f78120abf8152508160000181905250604051806040016040528060405180604001604052807f27edce85187f7846f80aa68b7d457446e91c0aeea02a7efa7ab0707350dc6ead81526020017f0236e365cbe3809b7a6ebe6223f6785db4b0c5277c000a073603026d84c25d0d815250815260200160405180604001604052807f1e1faaf8cb05700789dd8da3582df0663bb9f17edc4c37e423f33ab6147dbc6c81526020017f158bdba58679ee107c80c1d251c9a19b1f5fb1a354568d5e98576118cc94122d8152508152508160200181905250604051806040016040528060405180604001604052807f198e9393920d483a7260bfb731fb5d25f1aa493335a9e71297e485b7aef312c281526020017f1800deef121f1e76426a00665e5c4479674322d4f75edadd46debd5cd992f6ed815250815260200160405180604001604052807f090689d0585ff075ec9e99ad690c3395bc4b313370b38ef355acdadcd122975b81526020017f12c85ea5db8c6deb4aab71808dcb408fe3d1e7690c43d37b4ce6cc0166fa7daa8152508152508160400181905250604051806040016040528060405180604001604052807f1ecb4fc62aa2e84c1486e09211e5ec5b7b527ca3a8f36c483fc6eba5d2fbf0cc81526020017f0c60c005bbc993857f0200d6071cb8ef1fa7d760e50f7d7b01393cda3b7ff2c1815250815260200160405180604001604052807f287007de11fc25e30ea529bd8434e51b73a36bded81e18477254ebd728a7a22d81526020017f22064b19a2badc6a6459f6515761bddeada76f1dd36033db76b13861b52a43838152508152508160600181905250600367ffffffffffffffff81118015611ccd57600080fd5b50604051908082528060200260200182016040528015611d0757816020015b611cf461221c565b815260200190600190039081611cec5790505b50816080018190525060405180604001604052807f0f9582ffe87a1578e47c48a5adbd9441dad898b66633b6940be74f8c59a788c481526020017f267b7dd893681945f6ee608cc3e38c1200bdb6275bd1ee5ad1b778d708f9811b8152508160800151600081518110611d7657fe5b602002602001018190525060405180604001604052807f0b9f105769c8bffcd7c14bac3b6cab0a6bc7fb858106f97ac3998abc2aec7eb481526020017f2abaf68cb6da2bc084b37b166bcb4c770447f9a06b78032244b979266f1d8d708152508160800151600181518110611de757fe5b602002602001018190525060405180604001604052807f24ddbb3518066c89bd77686ab4f809c576f66964161e4d331ab37d4e4ba0aa2d81526020017f0e7725f563d2501c3d4d1ef70c99321db0cede9ff2ee1e08ec30100f0430fde38152508160800151600281518110611e5857fe5b602002602001018190525090565b60008151835114611edf576040517f08c379a00000000000000000000000000000000000000000000000000000000081526004018080602001828103825260168152602001807f70616972696e672d6c656e677468732d6661696c65640000000000000000000081525060200191505060405180910390fd5b600083519050600060068202905060608167ffffffffffffffff81118015611f0657600080fd5b50604051908082528060200260200182016040528015611f355781602001602082028036833780820191505090505b50905060008090505b838110156120db57868181518110611f5257fe5b602002602001015160000151826000600684020181518110611f7057fe5b602002602001018181525050868181518110611f8857fe5b602002602001015160200151826001600684020181518110611fa657fe5b602002602001018181525050858181518110611fbe57fe5b602002602001015160000151600060028110611fd657fe5b6020020151826002600684020181518110611fed57fe5b60200260200101818152505085818151811061200557fe5b60200260200101516000015160016002811061201d57fe5b602002015182600360068402018151811061203457fe5b60200260200101818152505085818151811061204c57fe5b60200260200101516020015160006002811061206457fe5b602002015182600460068402018151811061207b57fe5b60200260200101818152505085818151811061209357fe5b6020026020010151602001516001600281106120ab57fe5b60200201518260056006840201815181106120c257fe5b6020026020010181815250508080600101915050611f3e565b506120e46122a0565b6000602082602086026020860160086107d05a03fa905080600081146121095761210b565bfe5b508061217f576040517f08c379a00000000000000000000000000000000000000000000000000000000081526004018080602001828103825260158152602001807f70616972696e672d6f70636f64652d6661696c6564000000000000000000000081525060200191505060405180910390fd5b60008260006001811061218e57fe5b602002015114159550505050505092915050565b60405180606001604052806121b561221c565b81526020016121c261227a565b81526020016121cf61221c565b81525090565b6040518060a001604052806121e861221c565b81526020016121f561227a565b815260200161220261227a565b815260200161220f61227a565b8152602001606081525090565b604051806040016040528060008152602001600081525090565b6040518060600160405280600390602082028036833780820191505090505090565b6040518060800160405280600490602082028036833780820191505090505090565b604051806040016040528061228d6122c2565b815260200161229a6122c2565b81525090565b6040518060200160405280600190602082028036833780820191505090505090565b604051806040016040528060029060208202803683378082019150509050509056fea2646970667358221220263f35ca417bb7cf15c391368b79f9aa05ce74ea1ccac4209282abd2cd04d45164736f6c634300060b0033",
  "immutableReferences": {},
  "source": "// SPDX-License-Identifier: MIT\npragma solidity ^0.6.11;\n\n//It requires the verifier .sol generated\n//using circom\nimport './Verifiers.sol';\n\ncontract Positions is SpawnVerifier, MoveVerifier {\n\n    mapping (uint256 => bool) public positions_used;\n\n    function insert_initial_position(            \n            uint[2] memory a,\n            uint[2][2] memory b,\n            uint[2] memory c,\n            uint[1] memory input) \n    public{\n        require(\n            spawnVerifyProof(a,b,c,input),\n            \"Failed proof check\"\n        );\n        /*\n            There should be another require in the future, \n            as to take in account the 5 mins windows.\n\n            It may be needed to store a timestamp along with the position\n        */\n        require(!positions_used[input[0]], \"Position is already occupied\");\n\n        positions_used[input[0]] = true;\n    }\n\n    function move_to_new_position(            \n        uint[2] memory a,\n        uint[2][2] memory b,\n        uint[2] memory c,\n        uint[2] memory input) \n    public{\n        require(\n            moveVerifyProof(a,b,c,input),\n            \"Failed proof check\"\n        );\n\n        //This isn't the proper action, \n        require(!positions_used[input[0]], \"Position is already occupied\");\n\n        positions_used[input[0]] = true;\n    }\n}",
  "sourcePath": "/Users/maurofab/workspace/dark-forest/contracts/Positions.sol",
  "compiler": {
    "name": "solc",
    "version": "0.6.11+commit.5ef660b1.Emscripten.clang"
  },
  "schemaVersion": "3.4.4",
  "updatedAt": "2022-01-13T00:24:51.880Z",
  "networkType": "ethereum",
  "devdoc": {
    "kind": "dev",
    "methods": {
      "moveVerifyProof(uint256[2],uint256[2][2],uint256[2],uint256[2])": {
        "returns": {
          "r": " bool true if proof is valid"
        }
      },
      "spawnVerifyProof(uint256[2],uint256[2][2],uint256[2],uint256[1])": {
        "returns": {
          "r": " bool true if proof is valid"
        }
      }
    },
    "version": 1
  },
  "userdoc": {
    "kind": "user",
    "methods": {},
    "version": 1
  }
}