{
  "contractName": "Positions",
  "abi": [
    {
      "inputs": [
        {
          "internalType": "uint256",
          "name": "",
          "type": "uint256"
        }
      ],
      "name": "positions_used",
      "outputs": [
        {
          "internalType": "bool",
          "name": "",
          "type": "bool"
        }
      ],
      "stateMutability": "view",
      "type": "function",
      "constant": true
    },
    {
      "inputs": [
        {
          "internalType": "uint256[2]",
          "name": "a",
          "type": "uint256[2]"
        },
        {
          "internalType": "uint256[2][2]",
          "name": "b",
          "type": "uint256[2][2]"
        },
        {
          "internalType": "uint256[2]",
          "name": "c",
          "type": "uint256[2]"
        },
        {
          "internalType": "uint256[1]",
          "name": "input",
          "type": "uint256[1]"
        }
      ],
      "name": "verifyProof",
      "outputs": [
        {
          "internalType": "bool",
          "name": "r",
          "type": "bool"
        }
      ],
      "stateMutability": "view",
      "type": "function",
      "constant": true
    },
    {
      "inputs": [
        {
          "internalType": "uint256[2]",
          "name": "a",
          "type": "uint256[2]"
        },
        {
          "internalType": "uint256[2][2]",
          "name": "b",
          "type": "uint256[2][2]"
        },
        {
          "internalType": "uint256[2]",
          "name": "c",
          "type": "uint256[2]"
        },
        {
          "internalType": "uint256[1]",
          "name": "input",
          "type": "uint256[1]"
        }
      ],
      "name": "insert_position",
      "outputs": [],
      "stateMutability": "nonpayable",
      "type": "function"
    }
  ],
  "bytecode": "0x608060405234801561001057600080fd5b5061161a806100206000396000f3fe608060405234801561001057600080fd5b50600436106100415760003560e01c806343753b4d14610046578063848a9515146101bf578063b443f47e14610205575b600080fd5b6101a5600480360361012081101561005d57600080fd5b8101908080604001906002806020026040519081016040528092919082600260200280828437600081840152601f19601f82011690508083019250505050505091929192908060800190600280602002604051908101604052809291906000905b82821015610112578382604002016002806020026040519081016040528092919082600260200280828437600081840152601f19601f820116905080830192505050505050815260200190600101906100be565b50505050919291929080604001906002806020026040519081016040528092919082600260200280828437600081840152601f19601f820116905080830192505050505050919291929080602001906001806020026040519081016040528092919082600160200280828437600081840152601f19601f8201169050808301925050505050509192919290505050610366565b604051808215151515815260200191505060405180910390f35b6101eb600480360360208110156101d557600080fd5b8101908080359060200190929190505050610579565b604051808215151515815260200191505060405180910390f35b610364600480360361012081101561021c57600080fd5b8101908080604001906002806020026040519081016040528092919082600260200280828437600081840152601f19601f82011690508083019250505050505091929192908060800190600280602002604051908101604052809291906000905b828210156102d1578382604002016002806020026040519081016040528092919082600260200280828437600081840152601f19601f8201169050808301925050505050508152602001906001019061027d565b50505050919291929080604001906002806020026040519081016040528092919082600260200280828437600081840152601f19601f820116905080830192505050505050919291929080602001906001806020026040519081016040528092919082600160200280828437600081840152601f19601f8201169050808301925050505050509192919290505050610599565b005b60006103706114a2565b60405180604001604052808760006002811061038857fe5b602002015181526020018760016002811061039f57fe5b6020020151815250816000018190525060405180604001604052806040518060400160405280886000600281106103d257fe5b60200201516000600281106103e357fe5b60200201518152602001886000600281106103fa57fe5b602002015160016002811061040b57fe5b6020020151815250815260200160405180604001604052808860016002811061043057fe5b602002015160006002811061044157fe5b602002015181526020018860016002811061045857fe5b602002015160016002811061046957fe5b6020020151815250815250816020018190525060405180604001604052808560006002811061049457fe5b60200201518152602001856001600281106104ab57fe5b602002015181525081604001819052506060600167ffffffffffffffff811180156104d557600080fd5b506040519080825280602002602001820160405280156105045781602001602082028036833780820191505090505b50905060008090505b600181101561054c5784816001811061052257fe5b602002015182828151811061053357fe5b602002602001018181525050808060010191505061050d565b50600061055982846106fd565b141561056a57600192505050610571565b6000925050505b949350505050565b60006020528060005260406000206000915054906101000a900460ff1681565b6105a584848484610366565b610617576040517f08c379a00000000000000000000000000000000000000000000000000000000081526004018080602001828103825260128152602001807f4661696c65642070726f6f6620636865636b000000000000000000000000000081525060200191505060405180910390fd5b6000808260006001811061062757fe5b6020020151815260200190815260200160002060009054906101000a900460ff16156106bb576040517f08c379a000000000000000000000000000000000000000000000000000000000815260040180806020018281038252601c8152602001807f506f736974696f6e20697320616c7265616479206f636375706965640000000081525060200191505060405180910390fd5b6001600080836000600181106106cd57fe5b6020020151815260200190815260200160002060006101000a81548160ff02191690831515021790555050505050565b6000807f30644e72e131a029b85045b68181585d2833e84879b9709143e1f593f0000001905061072b6114d5565b610733610931565b90508060800151516001865101146107b3576040517f08c379a00000000000000000000000000000000000000000000000000000000081526004018080602001828103825260128152602001807f76657269666965722d6261642d696e707574000000000000000000000000000081525060200191505060405180910390fd5b6107bb61151c565b6040518060400160405280600081526020016000815250905060008090505b86518110156108ba57838782815181106107f057fe5b60200260200101511061086b576040517f08c379a000000000000000000000000000000000000000000000000000000000815260040180806020018281038252601f8152602001807f76657269666965722d6774652d736e61726b2d7363616c61722d6669656c640081525060200191505060405180910390fd5b6108ab826108a68560800151600185018151811061088557fe5b60200260200101518a858151811061089957fe5b6020026020010151610d25565b610e20565b915080806001019150506107da565b506108dd8183608001516000815181106108d057fe5b6020026020010151610e20565b90506109136108ef8660000151610f3a565b8660200151846000015185602001518587604001518b604001518960600151610fd4565b610923576001935050505061092b565b600093505050505b92915050565b6109396114d5565b60405180604001604052807f238befa07ae283e686c518b4137a3b70e108876bfd17b4a751ddcfdb640b8ab581526020017f2689eb960cc9b5034d068bfe525fe047825cdf5d94c3d1ad2c702c1564c02b068152508160000181905250604051806040016040528060405180604001604052807f1bb6bb21382954c0ae235a850c1a05f36195e737be6784f46dd9f87c5e2476ad81526020017f1ff92d41e2acbdb949f7ea215b01a089f22c8b6c491a6869fad83d7661e59f93815250815260200160405180604001604052807f205be7634101e6fdc2dca94a3db1fe23d795b28fda29261a66f93e94981a558581526020017f1c08a645b6028bdb87c348a95eaa9b9ab70ef1c761343e7508a481bab84248f68152508152508160200181905250604051806040016040528060405180604001604052807f198e9393920d483a7260bfb731fb5d25f1aa493335a9e71297e485b7aef312c281526020017f1800deef121f1e76426a00665e5c4479674322d4f75edadd46debd5cd992f6ed815250815260200160405180604001604052807f090689d0585ff075ec9e99ad690c3395bc4b313370b38ef355acdadcd122975b81526020017f12c85ea5db8c6deb4aab71808dcb408fe3d1e7690c43d37b4ce6cc0166fa7daa8152508152508160400181905250604051806040016040528060405180604001604052807f0392a2f411f898f1db69f84bc14cb4d2e55af4a8f951e2c706930c6a31fa174c81526020017f0b58ac24f42c290c9862456ea27784059bd86a081fd7ce7d8c3535657bc4ff54815250815260200160405180604001604052807f12dfb4b72b01fdcbdf5e25f9b794ad2c87addc15a1f8a38a2e99d78ea892529b81526020017f209c632e651b8b32cec5498a29aa2409d5761eaa4250ea18cae0687e4bfbf9578152508152508160600181905250600267ffffffffffffffff81118015610bfd57600080fd5b50604051908082528060200260200182016040528015610c3757816020015b610c2461151c565b815260200190600190039081610c1c5790505b50816080018190525060405180604001604052807f03dbfabea100578d945772b44006efb4274532b5a1fbe81b62de990fafe7765c81526020017f068d3d5943aa03a7bcecd9f4f4ae9c0885835f060221c70f095337e1a527f5628152508160800151600081518110610ca657fe5b602002602001018190525060405180604001604052807f2aeff6dd14cea8e383d602a99fcbeb4f31fa9f58b783237e10be6c7b911c305481526020017f0753693f560fece81146c4b0b95c5213da837f03f318f1c718a4c8b08887a9a48152508160800151600181518110610d1757fe5b602002602001018190525090565b610d2d61151c565b610d35611536565b836000015181600060038110610d4757fe5b602002018181525050836020015181600160038110610d6257fe5b6020020181815250508281600260038110610d7957fe5b602002018181525050600060608360808460076107d05a03fa90508060008114610da257610da4565bfe5b5080610e18576040517f08c379a00000000000000000000000000000000000000000000000000000000081526004018080602001828103825260128152602001807f70616972696e672d6d756c2d6661696c6564000000000000000000000000000081525060200191505060405180910390fd5b505092915050565b610e2861151c565b610e30611558565b836000015181600060048110610e4257fe5b602002018181525050836020015181600160048110610e5d57fe5b602002018181525050826000015181600260048110610e7857fe5b602002018181525050826020015181600360048110610e9357fe5b602002018181525050600060608360c08460066107d05a03fa90508060008114610ebc57610ebe565bfe5b5080610f32576040517f08c379a00000000000000000000000000000000000000000000000000000000081526004018080602001828103825260128152602001807f70616972696e672d6164642d6661696c6564000000000000000000000000000081525060200191505060405180910390fd5b505092915050565b610f4261151c565b60007f30644e72e131a029b85045b68181585d97816a916871ca8d3c208c16d87cfd47905060008360000151148015610f7f575060008360200151145b15610fa3576040518060400160405280600081526020016000815250915050610fcf565b60405180604001604052808460000151815260200182856020015181610fc557fe5b0683038152509150505b919050565b60006060600467ffffffffffffffff81118015610ff057600080fd5b5060405190808252806020026020018201604052801561102a57816020015b61101761151c565b81526020019060019003908161100f5790505b5090506060600467ffffffffffffffff8111801561104757600080fd5b5060405190808252806020026020018201604052801561108157816020015b61106e61157a565b8152602001906001900390816110665790505b5090508a8260008151811061109257fe5b602002602001018190525088826001815181106110ab57fe5b602002602001018190525086826002815181106110c457fe5b602002602001018190525084826003815181106110dd57fe5b602002602001018190525089816000815181106110f657fe5b6020026020010181905250878160018151811061110f57fe5b6020026020010181905250858160028151811061112857fe5b6020026020010181905250838160038151811061114157fe5b60200260200101819052506111568282611166565b9250505098975050505050505050565b600081518351146111df576040517f08c379a00000000000000000000000000000000000000000000000000000000081526004018080602001828103825260168152602001807f70616972696e672d6c656e677468732d6661696c65640000000000000000000081525060200191505060405180910390fd5b600083519050600060068202905060608167ffffffffffffffff8111801561120657600080fd5b506040519080825280602002602001820160405280156112355781602001602082028036833780820191505090505b50905060008090505b838110156113db5786818151811061125257fe5b60200260200101516000015182600060068402018151811061127057fe5b60200260200101818152505086818151811061128857fe5b6020026020010151602001518260016006840201815181106112a657fe5b6020026020010181815250508581815181106112be57fe5b6020026020010151600001516000600281106112d657fe5b60200201518260026006840201815181106112ed57fe5b60200260200101818152505085818151811061130557fe5b60200260200101516000015160016002811061131d57fe5b602002015182600360068402018151811061133457fe5b60200260200101818152505085818151811061134c57fe5b60200260200101516020015160006002811061136457fe5b602002015182600460068402018151811061137b57fe5b60200260200101818152505085818151811061139357fe5b6020026020010151602001516001600281106113ab57fe5b60200201518260056006840201815181106113c257fe5b602002602001018181525050808060010191505061123e565b506113e46115a0565b6000602082602086026020860160086107d05a03fa905080600081146114095761140b565bfe5b508061147f576040517f08c379a00000000000000000000000000000000000000000000000000000000081526004018080602001828103825260158152602001807f70616972696e672d6f70636f64652d6661696c6564000000000000000000000081525060200191505060405180910390fd5b60008260006001811061148e57fe5b602002015114159550505050505092915050565b60405180606001604052806114b561151c565b81526020016114c261157a565b81526020016114cf61151c565b81525090565b6040518060a001604052806114e861151c565b81526020016114f561157a565b815260200161150261157a565b815260200161150f61157a565b8152602001606081525090565b604051806040016040528060008152602001600081525090565b6040518060600160405280600390602082028036833780820191505090505090565b6040518060800160405280600490602082028036833780820191505090505090565b604051806040016040528061158d6115c2565b815260200161159a6115c2565b81525090565b6040518060200160405280600190602082028036833780820191505090505090565b604051806040016040528060029060208202803683378082019150509050509056fea26469706673582212202052194e237c01b2ab874155356e9608f9d8a3081eab388b88e9217d25700a8e64736f6c634300060b0033",
  "immutableReferences": {},
  "source": "// SPDX-License-Identifier: MIT\npragma solidity ^0.6.11;\n\n//It requires the verifier .sol generated\n//using circom\nimport './Verifier.sol';\n\ncontract Positions is Verifier {\n\n    mapping (uint256 => bool) public positions_used;\n\n    function insert_position(            \n            uint[2] memory a,\n            uint[2][2] memory b,\n            uint[2] memory c,\n            uint[1] memory input) \n    public{\n        require(\n            verifyProof(a,b,c,input),\n            \"Failed proof check\"\n        );\n        require(!positions_used[input[0]], \"Position is already occupied\");\n        positions_used[input[0]] = true;\n    }\n}",
  "sourcePath": "/Users/maurofab/workspace/dark-forest/contracts/Positions.sol",
  "compiler": {
    "name": "solc",
    "version": "0.6.11+commit.5ef660b1.Emscripten.clang"
  },
  "schemaVersion": "3.4.4",
  "updatedAt": "2022-01-08T22:45:33.184Z",
  "networkType": "ethereum",
  "devdoc": {
    "kind": "dev",
    "methods": {
      "verifyProof(uint256[2],uint256[2][2],uint256[2],uint256[1])": {
        "returns": {
          "r": " bool true if proof is valid"
        }
      }
    },
    "version": 1
  },
  "userdoc": {
    "kind": "user",
    "methods": {},
    "version": 1
  }
}